{
  "_format": "hh-sol-artifact-1",
  "contractName": "DynamicInvoiceTokenDeployer",
  "sourceName": "contracts/DynamicInvoiceTokenDeployer.sol",
  "abi": [
    {
      "inputs": [],
      "name": "parameters",
      "outputs": [
        {
          "internalType": "address",
          "name": "registry",
          "type": "address"
        },
        {
          "internalType": "address",
          "name": "factory",
          "type": "address"
        },
        {
          "internalType": "string",
          "name": "name",
          "type": "string"
        },
        {
          "internalType": "string",
          "name": "symbol",
          "type": "string"
        },
        {
          "internalType": "string",
          "name": "requestId",
          "type": "string"
        },
        {
          "internalType": "bytes",
          "name": "paymentReference",
          "type": "bytes"
        },
        {
          "internalType": "address",
          "name": "payer",
          "type": "address"
        },
        {
          "internalType": "address",
          "name": "payee",
          "type": "address"
        },
        {
          "internalType": "uint256",
          "name": "amount",
          "type": "uint256"
        }
      ],
      "stateMutability": "view",
      "type": "function"
    }
  ],
  "bytecode": "0x6080604052348015600f57600080fd5b5061040e8061001f6000396000f3fe608060405234801561001057600080fd5b506004361061002b5760003560e01c80638903573014610030575b600080fd5b610038610056565b60405161004d9998979695949392919061030d565b60405180910390f35b60008054600154600280546001600160a01b0393841694929093169261007b9061039e565b80601f01602080910402602001604051908101604052809291908181526020018280546100a79061039e565b80156100f45780601f106100c9576101008083540402835291602001916100f4565b820191906000526020600020905b8154815290600101906020018083116100d757829003601f168201915b5050505050908060030180546101099061039e565b80601f01602080910402602001604051908101604052809291908181526020018280546101359061039e565b80156101825780601f1061015757610100808354040283529160200191610182565b820191906000526020600020905b81548152906001019060200180831161016557829003601f168201915b5050505050908060040180546101979061039e565b80601f01602080910402602001604051908101604052809291908181526020018280546101c39061039e565b80156102105780601f106101e557610100808354040283529160200191610210565b820191906000526020600020905b8154815290600101906020018083116101f357829003601f168201915b5050505050908060050180546102259061039e565b80601f01602080910402602001604051908101604052809291908181526020018280546102519061039e565b801561029e5780601f106102735761010080835404028352916020019161029e565b820191906000526020600020905b81548152906001019060200180831161028157829003601f168201915b505050506006830154600784015460089094015492936001600160a01b03918216939116915089565b6000815180845260005b818110156102ed576020818501810151868301820152016102d1565b506000602082860101526020601f19601f83011685010191505092915050565b6001600160a01b038a81168252891660208201526101206040820181905260009061033a9083018a6102c7565b828103606084015261034c818a6102c7565b9050828103608084015261036081896102c7565b905082810360a084015261037481886102c7565b6001600160a01b0396871660c08501529490951660e0830152506101000152979650505050505050565b600181811c908216806103b257607f821691505b6020821081036103d257634e487b7160e01b600052602260045260246000fd5b5091905056fea26469706673582212201cca1a9109f69fe472e257043f2ac963aa1c27309252cdca24e97c0ad88b147e64736f6c634300081b0033",
  "linkReferences": {},
  "deployedLinkReferences": {}
}